:1000000045C0000053C0000051C000004FC00000B8
:100010004DC000004BC0000049C0000047C00000B8
:1000200045C0000043C0000041C000003FC00000C8
:100030003DC000003BC0000039C0000037C00000D8
:1000400035C0000033C0000031C000002FC00000E8
:100050002DC000002BC0000029C0000027C00000F8
:1000600025C0000023C0000021C000001FC0000008
:100070001DC000001BC0000019C0000017C0000018
:1000800015C0000013C0000011C0000011241FBEE5
:10009000CFEFD0E4DEBFCDBF21E0A0E0B1E001C0F2
:1000A0001D92A430B207E1F7D7D10BC2A9CFCF93ED
:1000B000DF9300D01F92CDB7DEB789836A834B836D
:1000C0008B81882371F08A81282F30E081E090E0D5
:1000D00002C0880F991F2A95E2F7982F8981892BF2
:1000E0000EC08A81282F30E081E090E002C0880FA6
:1000F000991F2A95E2F7982F9095898189230F906F
:100100000F900F90DF91CF910895CF93DF9300D0A0
:10011000CDB7DEB789836A838981882F90E02A81F1
:10012000222F30E002C0959587952A95E2F78170DD
:10013000992721E0892B09F420E0822F0F900F905E
:10014000DF91CF910895CF93DF93CDB7DEB7809144
:100150000301882F90E08230910509F463C0833059
:10016000910534F4009781F0019709F44EC004C161
:100170008430910509F4A6C0843091050CF460C068
:10018000059709F4E3C0F8C08091020162E0BDDF89
:10019000882321F081E080930301EEC08091020169
:1001A00061E0B3DF882379F08091020162E0ADDF86
:1001B000882349F08091020163E0A7DF882319F0CA
:1001C0001092030121C08091020161E09EDF88232B
:1001D00049F08091020162E098DF882319F01092C3
:1001E000030112C08091020161E08FDF882349F092
:1001F0008091020163E089DF882319F010920301E6
:1002000003C010920301B8C0B7C08091020162E040
:100210007CDF882321F081E08093030103C083E029
:10022000809303018091020162E06FDF882321F057
:1002300082E080930301A0C084E0809303019CC00E
:100240008091020161E061DF882321F085E08093E5
:10025000030192C08091020161E057DF882379F0A9
:100260008091020162E051DF882349F08091020110
:1002700063E04BDF882319F01092030122C08091C4
:10028000020161E042DF882349F08091020162E0CF
:100290003CDF882319F01092030113C08091020102
:1002A00061E033DF882349F08091020163E02DDFB4
:1002B000882319F01092030104C083E080930301A6
:1002C0005BC05AC08091020161E01FDF882319F0F2
:1002D0001092030151C08091020161E016DF882372
:1002E00081F08091020162E010DF882351F080915B
:1002F000020163E00ADF882321F085E08093030197
:1003000024C08091020161E000DF882351F08091D8
:10031000020162E0FADE882321F085E08093030188
:1003200014C08091020161E0F0DE882351F08091D9
:10033000020163E0EADE882321F085E08093030177
:1003400004C084E08093030117C016C080910201AD
:1003500067E0DBDE882311F0109203018091020137
:1003600062E0D3DE882321F082E08093030103C0A2
:1003700085E080930301000080910301882F90E0C5
:100380008130910519F1823091051CF4892B41F0DF
:100390005FC08330910581F1059709F443C058C0CF
:1003A0008091000140E060E082DE80930001809156
:1003B000010140E060E07BDE80930101809101015A
:1003C00040E061E074DE8093010142C08091000151
:1003D00040E060E06CDE809300018091010141E02B
:1003E00060E065DE809301018091010140E061E001
:1003F0005EDE809301012CC08091000140E060E04E
:1004000056DE809300018091010140E060E04FDE04
:10041000809301018091010141E061E048DE809319
:10042000010116C08091000141E060E040DE809350
:1004300000018091010141E060E039DE809301011B
:100440008091010141E061E032DE80930101000012
:100450000000DF91CF910895CF93DF93CDB7DEB742
:100460001092030181E290E0FC01108282E290E0B0
:100470002FEFFC01208384E290E02FEFFC0120832A
:1004800085E290E0FC01108287E290E02FEFFC0112
:10049000208388E290E0FC01108280E290E0FC0181
:1004A0008081809302014FDE85E290E0209100017F
:1004B000FC01208388E290E020910101FC0120836F
:0604C000ECCFF894FFCF21
:00000001FF
