S02000005B746B696D3035385D5F6C61625B335D5F706172745B335D2E7372656380
S113000045C0000053C0000051C000004FC00000B4
S11300104DC000004BC0000049C0000047C00000B4
S113002045C0000043C0000041C000003FC00000C4
S11300303DC000003BC0000039C0000037C00000D4
S113004035C0000033C0000031C000002FC00000E4
S11300502DC000002BC0000029C0000027C00000F4
S113006025C0000023C0000021C000001FC0000004
S11300701DC000001BC0000019C0000017C0000014
S113008015C0000013C0000011C0000011241FBEE1
S1130090CFEFD0E4DEBFCDBF21E0A0E0B1E001C0EE
S11300A01D92A430B207E1F70BD13FC1A9CFCF9382
S11300B0DF9300D01F92CDB7DEB789836A834B8369
S11300C08B81882371F08A81282F30E081E090E0D1
S11300D002C0880F991F2A95E2F7982F8981892BEE
S11300E00EC08A81282F30E081E090E002C0880FA2
S11300F0991F2A95E2F7982F9095898189230F906B
S11301000F900F90DF91CF910895CF93DF9300D09C
S1130110CDB7DEB789836A838981882F90E02A81ED
S1130120222F30E002C0959587952A95E2F78170D9
S1130130992721E0892B09F420E0822F0F900F905A
S1130140DF91CF910895CF93DF93CDB7DEB7809140
S11301500301882F90E081309105C9F08230910528
S11301601CF4892B39F03CC082309105F1F00397DF
S113017051F136C08091020162E0C7DF882321F08B
S113018081E0809303012CC01092030129C0809167
S1130190020162E0BADF882321F081E08093030149
S11301A01FC082E0809303011BC08091020161E0C3
S11301B0ACDF882321F083E08093030111C082E047
S11301C0809303010DC08091020167E09EDF8823C4
S11301D019F01092030103C083E08093030100002F
S11301E080910301882F90E08130910519F18230CC
S11301F091051CF4892B41F05FC08230910581F197
S1130200039709F443C058C08091000140E060E0C6
S11302104EDF809300018091010140E060E047DF00
S1130220809301018091010140E061E040DF80930F
S1130230010142C08091000140E060E038DF80931A
S113024000018091010141E060E031DF8093010110
S11302508091010140E061E02ADF809301012CC01C
S11302608091000140E060E022DF809300018091F2
S1130270010140E060E01BDF8093010180910101F6
S113028041E061E014DF8093010116C08091000118
S113029041E060E00CDF809300018091010141E0C6
S11302A060E005DF809301018091010141E061E09C
S11302B0FEDE8093010100000000DF91CF910895DC
S11302C0CF93DF93CDB7DEB71092030181E290E0C4
S11302D0FC01108282E290E02FEFFC01208384E293
S11302E090E02FEFFC01208385E290E0FC01108276
S11302F087E290E02FEFFC01208388E290E0FC018C
S1130300108280E290E0FC018081809302011BDF77
S113031085E290E020910001FC01208388E290E0D6
S111032020910101FC012083ECCFF894FFCF63
S9030000FC
