S02000005B746B696D3035385D5F6C61625B335D5F706172745B335D2E7372656380
S113000045C0000053C0000051C000004FC00000B4
S11300104DC000004BC0000049C0000047C00000B4
S113002045C0000043C0000041C000003FC00000C4
S11300303DC000003BC0000039C0000037C00000D4
S113004035C0000033C0000031C000002FC00000E4
S11300502DC000002BC0000029C0000027C00000F4
S113006025C0000023C0000021C000001FC0000004
S11300701DC000001BC0000019C0000017C0000014
S113008015C0000013C0000011C0000011241FBEE1
S1130090CFEFD0E4DEBFCDBF21E0A0E0B1E001C0EE
S11300A01D92A430B207E1F776D1AAC1A9CFCF93AC
S11300B0DF9300D01F92CDB7DEB789836A834B8369
S11300C08B81882371F08A81282F30E081E090E0D1
S11300D002C0880F991F2A95E2F7982F8981892BEE
S11300E00EC08A81282F30E081E090E002C0880FA2
S11300F0991F2A95E2F7982F9095898189230F906B
S11301000F900F90DF91CF910895CF93DF9300D09C
S1130110CDB7DEB789836A838981882F90E02A81ED
S1130120222F30E002C0959587952A95E2F78170D9
S1130130992721E0892B09F420E0822F0F900F905A
S1130140DF91CF910895CF93DF93CDB7DEB7809140
S11301500301882F90E08130910509F44FC082306B
S113016091051CF4892B49F0A6C08230910509F44D
S113017053C0039709F492C09EC08091020162E0CB
S1130180C4DF882321F081E08093030194C080912F
S1130190020161E0BADF882379F08091020162E014
S11301A0B4DF882349F08091020163E0AEDF882345
S11301B019F01092030121C08091020161E0A5DFD2
S11301C0882349F08091020162E09FDF882319F0BF
S11301D01092030112C08091020161E096DF88232E
S11301E049F08091020163E090DF882319F01092B6
S11301F0030103C0109203015EC05DC0809102013F
S113020062E083DF882321F081E08093030153C0FF
S113021082E0809303014FC08091020161E075DFA9
S1130220882321F083E08093030145C0809102017B
S113023061E06BDF882379F08091020162E065DF81
S1130240882349F08091020163E05FDF882319F07D
S11302501092030122C08091020161E056DF8823DD
S113026049F08091020162E050DF882319F0109276
S1130270030113C08091020161E047DF882349F044
S11302808091020163E041DF882319F01092030199
S113029004C082E0809303010EC00DC0809102016E
S11302A067E033DF882319F01092030103C083E071
S11302B080930301000080910301882F90E0813036
S11302C0910519F1823091051CF4892B41F05FC02E
S11302D08230910581F1039709F443C058C080919D
S11302E0000140E060E0E3DE8093000180910101C1
S11302F040E060E0DCDE809301018091010140E098
S113030061E0D5DE8093010142C08091000140E0AC
S113031060E0CDDE809300018091010141E060E066
S1130320C6DE809301018091010140E061E0BFDEFF
S1130330809301012CC08091000140E060E0B7DEB1
S1130340809300018091010140E060E0B0DE809381
S113035001018091010141E061E0A9DE8093010186
S113036016C08091000141E060E0A1DE80930001AD
S11303708091010141E060E09ADE80930101809167
S1130380010141E061E093DE80930101000000007F
S1130390DF91CF910895CF93DF93CDB7DEB710925D
S11303A0030181E290E0FC01108282E290E02FEFF1
S11303B0FC01208384E290E02FEFFC01208385E29E
S11303C090E0FC01108287E290E02FEFFC01208393
S11303D088E290E0FC01108280E290E0FC018081E0
S11303E080930201B0DE85E290E020910001FC01DF
S11303F0208388E290E020910101FC012083ECCF6E
S1070400F894FFCF9A
S9030000FC
